:020000040000FA
:0400000095EF05F083
:10080000004D656E73616A6520656E766961646F1F
:10081000004C6120636F6E6578696F6E004D656E88
:1008200073616A652E2E2E0045737461206C6973A6
:1008300074610000000E0A6E08BE23EF04F021EF81
:1008400004F02DEF04F0081E071E061E056C000EB6
:10085000062207220822010E0A6E04BE34EF04F0BD
:1008600032EF04F03EEF04F0041E031E021E016C82
:10087000000E022203220422010E0A1A000E0B6E41
:10088000000E0C6E000E0D6E000E0E6E0550061062
:1008900007100810D8B44FEF04F051EF04F087EFC1
:1008A00004F0010E096E5BEF04F0D89005360636B1
:1008B00007360836092A08AE60EF04F062EF04F04C
:1008C00055EF04F0D8900B360C360D360E36055029
:1008D000015C065002580750035808500458D8A02D
:1008E00074EF04F076EF04F07FEF04F00550015E42
:1008F0000650025A0750035A0850045A0B80D890E9
:100900000832073206320532092E62EF04F00A502F
:10091000D8B48DEF04F08FEF04F097EF04F00E1EC3
:100920000D1E0C1E0B6C000E0C220D220E220BC095
:1009300001F00CC002F00DC003F00EC004F0120074
:10094000800E0F6E250E106E000E116E000E126ED0
:10095000EFEC04F027EC05F09EEC05F0110EA2EC94
:1009600005F0060E186E130E176EAE0EE82EFED7AB
:10097000172EFCD7182EFAD7280EA2EC05F0060E7B
:10098000186E130E176EAE0EE82EFED7172EFCD77C
:10099000182EFAD71D0EA2EC05F0060E186E130ED7
:1009A000176EAE0EE82EFED7172EFCD7182EFAD7EC
:1009B0009AEC05F0010E036E080E046E44EC05F08F
:1009C000060E186E130E176EAE0EE82EFED7172EFB
:1009D000FCD7182EFAD7AAEF04F000EF00F0949C91
:1009E000949EB8960FC005F010C006F011C007F035
:1009F00012C008F0000E016E090E026E3D0E036E6D
:100A0000000E046E1AEC04F001C013F002C014F0E2
:100A100003C015F004C016F013C001F014C002F0BA
:100A200015C003F016C004F0400E056E000E066EF1
:100A3000000E076E000E086E1AEC04F00104AF6E93
:100A4000AC88AB8EAC8EAC9CAC8AAB9C1200969002
:100A500096920F0E956E8D908D92000E8C6E410EBB
:100A6000036EEE0EE82EFED7032EFCD700D0020E4A
:100A70005FEC05F0280E5FEC05F00C0E5FEC05F066
:100A8000060E5FEC05F0120050EF05F003C0F6FF14
:100A900004C0F7FF0800F55077EC05F0034A042A7C
:100AA00003C0F6FF04C0F7FF0800F5500009D8A402
:100AB0005CEF05F05EEF05F046EF05F01200026E08
:100AC0008D900250F00B8C6E8CEC05F002C001F0A2
:100AD0000F0E01160138F00B8C6E8CEC05F0030E36
:100AE000016E980EE82EFED7012EFCD71200026E82
:100AF0008D800250F00B8C6E8CEC05F002C001F082
:100B00000F0E01160138F00B8C6E8CEC05F0100EF8
:100B1000E82EFED700D012008D8200D000D000F069
:100B20008D9200D000D000F01200000EF86E00018F
:100B3000A0EF04F0020E5FEC05F01200010E5FEC76
:0C0B400005F01200016E01C0ADFF1200B4
:020000040020DA
:08000000FFFFFFFFFFFFFFFF00
:020000040030CA
:0E00000000051F1FFF8385FF0FC00FE00F409C
:00000001FF
